{
  "transactions": [
    {
      "hash": "0x08764826416fbe337c286eb60df39f78c616f445d2ed0fde3e821624ce178e01",
      "transactionType": "CALL",
      "contractName": "Aside0x01",
      "contractAddress": "0x0677d658D57910B33106a111C65B902D0cA3e000",
      "function": "requestUnlock(uint256)",
      "arguments": [
        "1132259709"
      ],
      "transaction": {
        "type": "0x02",
        "from": "0x3c7e48216c74d7818ab1fd226e56c60c4d659ba6",
        "to": "0x0677d658d57910b33106a111c65b902d0ca3e000",
        "gas": "0x56f34",
        "value": "0x0",
        "data": "0xc9d2ff9d00000000000000000000000000000000000000000000000000000000437ce97d",
        "nonce": "0xa",
        "accessList": []
      },
      "additionalContracts": [],
      "isFixedGasLimit": false
    }
  ],
  "receipts": [],
  "libraries": [],
  "pending": [
    "0x08764826416fbe337c286eb60df39f78c616f445d2ed0fde3e821624ce178e01"
  ],
  "returns": {},
  "timestamp": 1708882305,
  "chain": 11155111,
  "multi": false,
  "commit": "1f45692"
}