{
  "transactions": [
    {
      "hash": "0xe66bf29a5e9b95c80efec38eff0be3348250cc7637efc87486cb534d3ca309d4",
      "transactionType": "CALL",
      "contractName": "Aside0x01",
      "contractAddress": "0x0677d658D57910B33106a111C65B902D0cA3e000",
      "function": "requestUnlock(uint256)",
      "arguments": [
        "1079843793"
      ],
      "transaction": {
        "type": "0x02",
        "from": "0x3c7e48216c74d7818ab1fd226e56c60c4d659ba6",
        "to": "0x0677d658d57910b33106a111c65b902d0ca3e000",
        "gas": "0x56f34",
        "value": "0x0",
        "data": "0xc9d2ff9d00000000000000000000000000000000000000000000000000000000405d1bd1",
        "nonce": "0x8",
        "accessList": []
      },
      "additionalContracts": [],
      "isFixedGasLimit": false
    }
  ],
  "receipts": [],
  "libraries": [],
  "pending": [
    "0xe66bf29a5e9b95c80efec38eff0be3348250cc7637efc87486cb534d3ca309d4"
  ],
  "returns": {},
  "timestamp": 1708881921,
  "chain": 11155111,
  "multi": false,
  "commit": "1f45692"
}