{
  "transactions": [
    {
      "hash": "0xe66bf29a5e9b95c80efec38eff0be3348250cc7637efc87486cb534d3ca309d4",
      "transactionType": "CALL",
      "contractName": "Aside0x01",
      "contractAddress": "0x0677d658D57910B33106a111C65B902D0cA3e000",
      "function": "requestUnlock(uint256)",
      "arguments": [
        "1079843793"
      ],
      "transaction": {
        "type": "0x02",
        "from": "0x3c7e48216c74d7818ab1fd226e56c60c4d659ba6",
        "to": "0x0677d658d57910b33106a111c65b902d0ca3e000",
        "gas": "0x56f34",
        "value": "0x0",
        "data": "0xc9d2ff9d00000000000000000000000000000000000000000000000000000000405d1bd1",
        "nonce": "0x8",
        "accessList": []
      },
      "additionalContracts": [],
      "isFixedGasLimit": false
    }
  ],
  "receipts": [
    {
      "transactionHash": "0xe66bf29a5e9b95c80efec38eff0be3348250cc7637efc87486cb534d3ca309d4",
      "transactionIndex": "0x2b",
      "blockHash": "0x6a90b38cf4f52bcb29c8959b26a401c7d670157bd48576023a8b3f637ac53645",
      "blockNumber": "0x51cfdd",
      "from": "0x3c7e48216C74D7818aB1Fd226e56C60C4D659bA6",
      "to": "0x0677d658D57910B33106a111C65B902D0cA3e000",
      "cumulativeGasUsed": "0x4cbc54",
      "gasUsed": "0x3eeb8",
      "contractAddress": null,
      "logs": [
        {
          "address": "0x1d4ad17b358120619796Da07264539b621511c34",
          "topics": [
            "0xbf50768ccf13bd0110ca6d53a9c4f1f3271abdd4c24a56878863ed25b20598ff",
            "0xeaadeebd64ca6a365fcd2a2728357d8adbe3d7a64994af77253812e2104fcd2f",
            "0x0000000000000000000000000677d658d57910b33106a111c65b902d0ca3e000"
          ],
          "data": "0x0000000000000000000000003c7e48216c74d7818ab1fd226e56c60c4d659ba6000000000000000000000000000000000000000000000000000000000000076c0000000000000000000000008873b045d40a458e46e356a96279ae1820a898ba00000000000000000000000000000000000000000000000000000000000002400000000000000000000000000000000000000000000000000000000000000001000000000000000000000000000000000000000000000000000000000000000000000000000000000000000000000000000000000000000000000000000186a0eaadeebd64ca6a365fcd2a2728357d8adbe3d7a64994af77253812e2104fcd2f0000000000000000000000001d4ad17b358120619796da07264539b621511c340000000000000000000000000000000000000000000000000b4e797da6101c280000000000000000000000000677d658d57910b33106a111c65b902d0ca3e000000000000000000000000000000000000000000000000000000000000000076c00000000000000000000000000000000000000000000000000000000000186a000000000000000000000000000000000000000000000000002c68af0bb14000000000000000000000000000000000000000000000000000000000000000000000000000000000000000000000000000000000000000000000000000000019a280000000000000000000000000000000000000000000000000000000000009c400000000000000000000000000000000000000000000000000000000065db793000000000000000000000000000000000000000000000000000000000000001556c636f64654c6f636174696f6ec258200000000000000000000000000000000000000000000000000000000000000000686c616e6775616765c25820000000000000000000000000000000000000000000000000000000000000000066736f7572636578f0636f6e737420726573706f6e7365203d2061776169742046756e6374696f6e732e6d616b654874747052657175657374287b75726c3a2768747470733a2f2f61736964652d646973747269627574656467616c6c6572792e76657263656c2e6170702f6170692f616973656e74696d656e74272c206d6574686f643a27474554277d293b69662028726573706f6e73652e6572726f7229207b7468726f77204572726f72282752657175657374206661696c656427293b7d72657475726e2046756e6374696f6e732e656e636f646555696e7432353628726573706f6e73652e646174612e73656e74696d656e74293b0000000000000000000000",
          "blockHash": "0x6a90b38cf4f52bcb29c8959b26a401c7d670157bd48576023a8b3f637ac53645",
          "blockNumber": "0x51cfdd",
          "transactionHash": "0xe66bf29a5e9b95c80efec38eff0be3348250cc7637efc87486cb534d3ca309d4",
          "transactionIndex": "0x2b",
          "logIndex": "0x61",
          "removed": false
        },
        {
          "address": "0xb83E47C2bC239B3bf370bc41e1459A34b41238D0",
          "topics": [
            "0xf67aec45c9a7ede407974a3e0c3a743dffeab99ee3f2d4c9a8144c2ebf2c7ec9",
            "0xeaadeebd64ca6a365fcd2a2728357d8adbe3d7a64994af77253812e2104fcd2f",
            "0x66756e2d657468657265756d2d7365706f6c69612d3100000000000000000000",
            "0x000000000000000000000000000000000000000000000000000000000000076c"
          ],
          "data": "0x0000000000000000000000008873b045d40a458e46e356a96279ae1820a898ba0000000000000000000000000677d658d57910b33106a111c65b902d0ca3e0000000000000000000000000003c7e48216c74d7818ab1fd226e56c60c4d659ba600000000000000000000000000000000000000000000000000000000000000e0000000000000000000000000000000000000000000000000000000000000000100000000000000000000000000000000000000000000000000000000000186a00000000000000000000000000000000000000000000000000b4e797da6101c2800000000000000000000000000000000000000000000000000000000000001556c636f64654c6f636174696f6ec258200000000000000000000000000000000000000000000000000000000000000000686c616e6775616765c25820000000000000000000000000000000000000000000000000000000000000000066736f7572636578f0636f6e737420726573706f6e7365203d2061776169742046756e6374696f6e732e6d616b654874747052657175657374287b75726c3a2768747470733a2f2f61736964652d646973747269627574656467616c6c6572792e76657263656c2e6170702f6170692f616973656e74696d656e74272c206d6574686f643a27474554277d293b69662028726573706f6e73652e6572726f7229207b7468726f77204572726f72282752657175657374206661696c656427293b7d72657475726e2046756e6374696f6e732e656e636f646555696e7432353628726573706f6e73652e646174612e73656e74696d656e74293b0000000000000000000000",
          "blockHash": "0x6a90b38cf4f52bcb29c8959b26a401c7d670157bd48576023a8b3f637ac53645",
          "blockNumber": "0x51cfdd",
          "transactionHash": "0xe66bf29a5e9b95c80efec38eff0be3348250cc7637efc87486cb534d3ca309d4",
          "transactionIndex": "0x2b",
          "logIndex": "0x62",
          "removed": false
        },
        {
          "address": "0x0677d658D57910B33106a111C65B902D0cA3e000",
          "topics": [
            "0x1131472297a800fee664d1d89cfa8f7676ff07189ecc53f80bbb5f4969099db8",
            "0xeaadeebd64ca6a365fcd2a2728357d8adbe3d7a64994af77253812e2104fcd2f"
          ],
          "data": "0x",
          "blockHash": "0x6a90b38cf4f52bcb29c8959b26a401c7d670157bd48576023a8b3f637ac53645",
          "blockNumber": "0x51cfdd",
          "transactionHash": "0xe66bf29a5e9b95c80efec38eff0be3348250cc7637efc87486cb534d3ca309d4",
          "transactionIndex": "0x2b",
          "logIndex": "0x63",
          "removed": false
        }
      ],
      "status": "0x1",
      "logsBloom": "0x000002000000000000000000000008000000000000140000000000000000000000000000000000400000000000000008000000c000000000000000000000000000000000000000000000000000000000080000000000000400000000000000000000000000000000000000000000000000000000800c000000000000000010000800000000000000000000000000000000000080000000000800001000000000000000000001040000000000000000000000000000000000000008000000000040000000000000000080000800000000000000000000021000000000000000000000000000000000000000200000200000000000000020000000000000200000",
      "type": "0x2",
      "effectiveGasPrice": "0x12f1d807e"
    }
  ],
  "libraries": [],
  "pending": [],
  "returns": {},
  "timestamp": 1708881927,
  "chain": 11155111,
  "multi": false,
  "commit": "1f45692"
}