{
  "transactions": [
    {
      "hash": "0x6968c057886d3049af49e4be9d3a23c67ebfdf450605b7985ca47fdce4f499b3",
      "transactionType": "CALL",
      "contractName": "Aside0x01",
      "contractAddress": "0x0677d658D57910B33106a111C65B902D0cA3e000",
      "function": "mint(address,uint256,string)",
      "arguments": [
        "0x8873b045d40A458e46E356a96279aE1820a898bA",
        "1132259709",
        "060"
      ],
      "transaction": {
        "type": "0x02",
        "from": "0x3c7e48216c74d7818ab1fd226e56c60c4d659ba6",
        "to": "0x0677d658d57910b33106a111c65b902d0ca3e000",
        "gas": "0x1ed81",
        "value": "0x0",
        "data": "0xd3fc98640000000000000000000000008873b045d40a458e46e356a96279ae1820a898ba00000000000000000000000000000000000000000000000000000000437ce97d000000000000000000000000000000000000000000000000000000000000006000000000000000000000000000000000000000000000000000000000000000033036300000000000000000000000000000000000000000000000000000000000",
        "nonce": "0x9",
        "accessList": []
      },
      "additionalContracts": [],
      "isFixedGasLimit": false
    }
  ],
  "receipts": [],
  "libraries": [],
  "pending": [
    "0x6968c057886d3049af49e4be9d3a23c67ebfdf450605b7985ca47fdce4f499b3"
  ],
  "returns": {},
  "timestamp": 1708882231,
  "chain": 11155111,
  "multi": false,
  "commit": "1f45692"
}