{
  "transactions": [
    {
      "hash": "0x96d1fde42d3233170f3a234b10ef6e31f796a6ef266616a54c456ded8cc2ba91",
      "transactionType": "CALL",
      "contractName": "Aside0x01",
      "contractAddress": "0x0677d658D57910B33106a111C65B902D0cA3e000",
      "function": "mint(address,uint256,string)",
      "arguments": [
        "0x8873b045d40A458e46E356a96279aE1820a898bA",
        "1079843793",
        "020"
      ],
      "transaction": {
        "type": "0x02",
        "from": "0x3c7e48216c74d7818ab1fd226e56c60c4d659ba6",
        "to": "0x0677d658d57910b33106a111c65b902d0ca3e000",
        "gas": "0x22e59",
        "value": "0x0",
        "data": "0xd3fc98640000000000000000000000008873b045d40a458e46e356a96279ae1820a898ba00000000000000000000000000000000000000000000000000000000405d1bd1000000000000000000000000000000000000000000000000000000000000006000000000000000000000000000000000000000000000000000000000000000033032300000000000000000000000000000000000000000000000000000000000",
        "nonce": "0x7",
        "accessList": []
      },
      "additionalContracts": [],
      "isFixedGasLimit": false
    }
  ],
  "receipts": [
    {
      "transactionHash": "0x96d1fde42d3233170f3a234b10ef6e31f796a6ef266616a54c456ded8cc2ba91",
      "transactionIndex": "0x3e",
      "blockHash": "0xe3e4e7f10262fd651fdfdd6b2a228f7f08abf8a0b4001aa17d57cb63f2432c66",
      "blockNumber": "0x51cf76",
      "from": "0x3c7e48216C74D7818aB1Fd226e56C60C4D659bA6",
      "to": "0x0677d658D57910B33106a111C65B902D0cA3e000",
      "cumulativeGasUsed": "0x6dd778",
      "gasUsed": "0x1943d",
      "contractAddress": null,
      "logs": [
        {
          "address": "0x0677d658D57910B33106a111C65B902D0cA3e000",
          "topics": [
            "0xddf252ad1be2c89b69c2b068fc378daa952ba7f163c4a11628f55a4df523b3ef",
            "0x0000000000000000000000000000000000000000000000000000000000000000",
            "0x0000000000000000000000008873b045d40a458e46e356a96279ae1820a898ba",
            "0x00000000000000000000000000000000000000000000000000000000405d1bd1"
          ],
          "data": "0x",
          "blockHash": "0xe3e4e7f10262fd651fdfdd6b2a228f7f08abf8a0b4001aa17d57cb63f2432c66",
          "blockNumber": "0x51cf76",
          "transactionHash": "0x96d1fde42d3233170f3a234b10ef6e31f796a6ef266616a54c456ded8cc2ba91",
          "transactionIndex": "0x3e",
          "logIndex": "0x79",
          "removed": false
        }
      ],
      "status": "0x1",
      "logsBloom": "0x00000000000000000000000000000000000000000010000000000000000000000000000000000000000000000000000000000000000000000008000000000000000000000000000000000008000000000000000000000004000000000000000000000000220000000000000000000800000000000004000000000010000002000000000000000000000000000000000000000000000000000080000000000000000000000000000000000000000000000000000000000000000000000000000000000002000000000000000000000020000000000000000000000000000020000000000000000000000000000000000000000000000000000000000000200000",
      "type": "0x2",
      "effectiveGasPrice": "0xcf14ee2a"
    }
  ],
  "libraries": [],
  "pending": [],
  "returns": {},
  "timestamp": 1708880618,
  "chain": 11155111,
  "multi": false,
  "commit": "1f45692"
}