{
  "transactions": [
    {
      "hash": "0x6968c057886d3049af49e4be9d3a23c67ebfdf450605b7985ca47fdce4f499b3",
      "transactionType": "CALL",
      "contractName": "Aside0x01",
      "contractAddress": "0x0677d658D57910B33106a111C65B902D0cA3e000",
      "function": "mint(address,uint256,string)",
      "arguments": [
        "0x8873b045d40A458e46E356a96279aE1820a898bA",
        "1132259709",
        "060"
      ],
      "transaction": {
        "type": "0x02",
        "from": "0x3c7e48216c74d7818ab1fd226e56c60c4d659ba6",
        "to": "0x0677d658d57910b33106a111c65b902d0ca3e000",
        "gas": "0x1ed81",
        "value": "0x0",
        "data": "0xd3fc98640000000000000000000000008873b045d40a458e46e356a96279ae1820a898ba00000000000000000000000000000000000000000000000000000000437ce97d000000000000000000000000000000000000000000000000000000000000006000000000000000000000000000000000000000000000000000000000000000033036300000000000000000000000000000000000000000000000000000000000",
        "nonce": "0x9",
        "accessList": []
      },
      "additionalContracts": [],
      "isFixedGasLimit": false
    }
  ],
  "receipts": [
    {
      "transactionHash": "0x6968c057886d3049af49e4be9d3a23c67ebfdf450605b7985ca47fdce4f499b3",
      "transactionIndex": "0x3c",
      "blockHash": "0x9c5a942643a41fcb3a71ab4dbddc87bb047607b5f508c34bde9843f6da9acf7c",
      "blockNumber": "0x51cff5",
      "from": "0x3c7e48216C74D7818aB1Fd226e56C60C4D659bA6",
      "to": "0x0677d658D57910B33106a111C65B902D0cA3e000",
      "cumulativeGasUsed": "0x442b00",
      "gasUsed": "0x15171",
      "contractAddress": null,
      "logs": [
        {
          "address": "0x0677d658D57910B33106a111C65B902D0cA3e000",
          "topics": [
            "0xddf252ad1be2c89b69c2b068fc378daa952ba7f163c4a11628f55a4df523b3ef",
            "0x0000000000000000000000000000000000000000000000000000000000000000",
            "0x0000000000000000000000008873b045d40a458e46e356a96279ae1820a898ba",
            "0x00000000000000000000000000000000000000000000000000000000437ce97d"
          ],
          "data": "0x",
          "blockHash": "0x9c5a942643a41fcb3a71ab4dbddc87bb047607b5f508c34bde9843f6da9acf7c",
          "blockNumber": "0x51cff5",
          "transactionHash": "0x6968c057886d3049af49e4be9d3a23c67ebfdf450605b7985ca47fdce4f499b3",
          "transactionIndex": "0x3c",
          "logIndex": "0x41",
          "removed": false
        }
      ],
      "status": "0x1",
      "logsBloom": "0x00000000000000000000000000000000000000000010000000000000000000000000000000000000000000000000000000000000000000000008000000000000000000000000000000000028000000000000000000000004000000000000000000000000020000000000000000000800000000000004000000000010000002000000000000000000000000000000000000000000000000000080000000000000000000000000000000000000000000000000000000000000000000000000000200000002000000000000000000000000000000000000000000000000000020000000000000000000000000000000020000000000000000000000000000000000",
      "type": "0x2",
      "effectiveGasPrice": "0x12b1d2e64"
    }
  ],
  "libraries": [],
  "pending": [],
  "returns": {},
  "timestamp": 1708882238,
  "chain": 11155111,
  "multi": false,
  "commit": "1f45692"
}